:100000000C9434000C9446000C9446000C9446006A
:100010000C9446000C9446000C9446000C94460048
:100020000C9446000C9446000C9446000C94460038
:100030000C9446000C9446000C9446000C94460028
:100040000C9446000C9446000C9446000C94460018
:100050000C9446000C9446000C9446000C94460008
:100060000C9446000C94460011241FBECFEFD8E03C
:10007000DEBFCDBF21E0A0E0B1E001C01D92A13004
:10008000B207E1F70E94A2000C94E7000C94000074
:1000900084B18C6284B984B18F7E84B98CB580615F
:1000A0008CBD8CB583608CBD8CB58C608CBD8CB5E3
:1000B00080648CBD85B18B7F85B91EBC0DB407FEF5
:1000C000FDCF85B1846085B9089525B12B7F25B911
:1000D00026E02EBD0DB407FEFDCF25B1246025B965
:1000E00025B12B7F25B922E02EBD0DB407FEFDCF33
:1000F0009EBD0DB407FEFDCF8EBD0DB407FEFDCF36
:100100006EBD0DB407FEFDCF85B1846085B908953D
:1001100025B12B7F25B923E02EBD0DB407FEFDCF01
:100120009EBD0DB407FEFDCF8EBD0DB407FEFDCF05
:100130008FEF8EBD0DB407FEFDCF8EB595B19460E7
:1001400095B908950E9448000E94D100C0E0D0E017
:1001500000E010E0CA31D10590F461E6600FCE01F5
:100160000E9465000F5F1F4F2FEF80E792E0215044
:1001700080409040E1F700C000002196EBCFC0E046
:10018000D0E0CB31D10560F4CE010E94880080938D
:1001900000010E94E0008FE50E94E0002196F1CF6F
:1001A000FFCF83E390E09093C5008093C40010924A
:1001B000C00088E98093C1008EE08093C20008955A
:1001C0009091C00095FFFCCF8093C6000895F894ED
:0201D000FFCF5F
:00000001FF
